:020000040800F2
:100000006025002031020008872A0008112400081A
:10001000852A0008210D0008F733000800000000C1
:10002000000000000000000000000000990100082E
:10003000230D000800000000DD0100087D310008EC
:100040004B0200084B0200084B0200084B0200085C
:100050004B0200084B0200084B0200084B0200084C
:100060004B0200084B0200084B0200084B0200083C
:100070004B0200084B0200084B0200084B0200082C
:100080004B0200084B0200084B0200084B0200081C
:100090004B0200084B0200084B0200084B0200080C
:1000A0004B020008F93100084B0200084B0200081F
:1000B0004B0200084B0200084B0200084B020008EC
:1000C0004B0200084B0200084B0200084B020008DC
:1000D0004B0200084B0200084B0200084B020008CC
:1000E0004B0200084B0200084B02000800F002F827
:1000F00000F042F80AA090E8000C82448344AAF180
:100100000107DA4501D100F037F8AFF2090EBAE87D
:100110000F0013F0010F18BFFB1A43F0010318473B
:100120002C5700004C570000103A24BF78C878C103
:10013000FAD8520724BF30C830C144BF04680C60ED
:10014000704700000023002400250026103A28BF35
:1001500078C1FBD8520728BF30C148BF0B60704739
:10016000642900F0C980752900F0C680002070471E
:100170001FB51FBD10B510BD00F03AFB1146FFF7CB
:10018000F7FF03F051F900F058FB03B4FFF7F2FF5B
:1001900003BC00F05BFB0000224B19680868B0E864
:1001A000F00F80F30988BFF36F8F4FF0000080F3EA
:1001B00011884EF00D0E70470000000006480068E0
:1001C000006880F3088862B661B6BFF34F8FBFF353
:1001D0006F8F00DF00BF00BF08ED00E0EFF3098084
:1001E000BFF36F8F0F4B1A6820E9F00F106008B54E
:1001F0004FF0500080F31188BFF34F8FBFF36F8F24
:1002000004F06AF94FF0000080F31188BDE808405F
:1002100019680868B0E8F00F80F30988BFF36F8FA2
:10022000704700BF74000020EFF3058070470000A6
:100230000948804709480047FEE7FEE7FEE7FEE77A
:10024000FEE7FEE7FEE7FEE7FEE7FEE704480549B6
:10025000054A064B70470000F5310008ED00000824
:10026000601F002060250020602100206021002008
:100270000FB47CB50C0009AA009001D02044401EA8
:10028000084B7B4469460190089800F034FA054613
:100290001CB10020694600F041FA28467CBC5DF89C
:1002A00014FB0000A104000070B5044685690068D5
:1002B000C10601D5302600E02026C00707D070BD5A
:1002C000D4E9012130469047206A401C20626D1E0F
:1002D000F6D570BD70B5044685690078C00707D1B2
:1002E00070BDD4E9012120209047206A401C206283
:1002F0006D1EF6D570BD00002DE9F04106460024C4
:1003000010687529314616A510D0AFF3008000287B
:1003100002DA404213A507E031688A0701D512A529
:1003200002E0490704D511A5012401E0AFF30080E4
:1003300000210A2206F1240709E0B0FBF2FCB0FB21
:10034000F2F302FB1C00303078541846491C002898
:10035000F3D123462A463046BDE8F04100F06DB99E
:10036000000000002D0000002B0000002000000015
:100370002DE9F05F894604464FF0000ADFF874B1BA
:10038000FB44C0F820A02046E1688847002874D0CC
:10039000252806D0D4E901219047206A401C20621C
:1003A000F1E700265F462046E16888472028054699
:1003B00007DB312D05D2781910F8200C08B106435F
:1003C000F1E7B00701D526F00406C4F81CA0002709
:1003D000C4F818A02A2D09D0284603F01DF838B318
:1003E00004EB8708303DC8F8185019E059F8041B91
:1003F000204604EB87029161E1688847012F05469A
:1004000018D1E069002820DA26F020061DE0D8F88F
:10041000180000EB800005EB40003038C8F81800E9
:100420002046E1688847054602F0F6FF0028EED135
:10043000012F0AD02E2D08D12046E16888477F1C65
:100440000546022F46F02006C4DBA069002803DA27
:10045000404246F00106A061F00701D026F01006E8
:100460006C2D0BD0682D09D04C2D39D06A2D35D08C
:10047000742D35D07A2D33D016E038E0E1682F4660
:1004800020468847B842054609D16C2F26D04FF444
:100490008060E168064320468847054604E06C2FEB
:1004A0001AD04FF4807006430DB3A5F1410019280E
:1004B00002D8203546F400664A4629462046266082
:1004C0004E46FFF74DFE80B101280BD0F61D26F0F9
:1004D000070000F1080956E74020E4E78020D8E74C
:1004E0000020D6E706F104094DE7284652E7206AC6
:1004F000BDE8F09FAA54000010B5431C02E010F8BC
:10050000011B71B18107FAD14FF0013202C88C1A78
:100510008C4314EAC211F9D0C01A0A0603D0C01ED7
:1005200010BDC01A10BD0A0401D0801E10BD090202
:10053000FCD0401E10BD032A40F2308010F0030CA6
:1005400000F0158011F8013BBCF1020F624498BF26
:1005500011F801CB00F8013B38BF11F8013BA2F1C3
:10056000040298BF00F801CB38BF00F8013B11F03E
:10057000030300F0E080083AC0F0088051F8043B23
:10058000083A51F804CBA0E80810F5E7121D5CBF4B
:1005900051F8043B40F8043BAFF30080D20724BF7E
:1005A00011F8013B11F801CB48BF11F8012B24BF12
:1005B00000F8013B00F801CB48BF00F8012B704761
:1005C00002F0FF0343EA032242EA024200F0E7B8E6
:1005D0004FF0000200B5134694469646203922BFDC
:1005E000A0E80C50A0E80C50B1F12001BFF4F7AF27
:1005F000090728BFA0E80C5048BF0CC05DF804EB09
:10060000890028BF40F8042B08BF704748BF20F876
:10061000022B11F0804F18BF00F8012B7047704774
:100620007047704710B500F0DBF8006810BD10B5DA
:10063000044600F0D5F8046010BD2DE9F0470D46E2
:1006400099469246044600F124080168880604D5BC
:10065000E06921F01001216000E00120A84201DDE5
:10066000471B00E00027A1697A1902EB0900081A6C
:10067000A0612078C00602D42046FFF715FE0026B0
:1006800008E0D4E901211AF806009047206A401CCE
:10069000761C20624E45F4DB2078C0060AD5204641
:1006A000FFF702FE06E0D4E9012130209047206ADE
:1006B000401C2062381EA7F10107F4DC07E0D4E9F2
:1006C000012118F805009047206A401C2062281E6E
:1006D000A5F10105F3DC2046FFF7FCFD20780006BC
:1006E00002D50220BDE8F0870120FBE701694A1C22
:1006F00002610878704700B58FB0CDE90131002163
:10070000059105497944CDE9031011466846FFF784
:100710002FFE0FB000BD0000E5FFFFFF0A6802F8E2
:10072000010B0A607047D1E900239A4202D2531CA0
:100730000B601070704710B5203AC0F00B80B1E824
:100740001850203AA0E81850B1E81850A0E8185006
:10075000BFF4F5AF5FEA027C24BFB1E81850A0E80F
:10076000185044BF18C918C0BDE810405FEA827C29
:1007700024BF51F8043B40F8043B08BF7047D20740
:1007800028BF31F8023B48BF11F8012B28BF20F8E1
:10079000023B48BF00F8012B70474FF000020429CC
:1007A000C0F0128010F0030C3FF414AFCCF1040C35
:1007B000BCF1020F18BF00F8012BA8BF20F8022BD4
:1007C000A1EB0C01FFF706BF5FEAC17C24BF00F874
:1007D000012B00F8012B48BF00F8012B70470000E7
:1007E00000487047001F002000487047001F00208D
:1007F0007546FFF7F9FFAE4605006946534620F0FF
:100800000700854618B020B5FFF720FDBDE8204061
:100810004FF000064FF000074FF000084FF0000BBC
:1008200021F00701AC46ACE8C009ACE8C009ACE86F
:10083000C009ACE8C0098D46704710B50446AFF357
:1008400000802046BDE81040FFF79FBC01491820FA
:10085000ABBEFEE726000200704770B50C460546A9
:1008600000F0F0FB40B9142000F05EFA2146284663
:1008700000F0E8FB002800D0012070BD70B51A4ED2
:1008800005464FF48051304600F0DCFB98B100245F
:100890004FF40051304600F0D5FB70B15FF000001E
:1008A000124E40EA44043078A04208D0347000F080
:1008B000D3FB706009E00124EAE70120F0E700F0D3
:1008C000CBFB7168401A052801D2002070BD95F954
:1008D0000000002801DA2C70F7E7054944EA80009F
:1008E00008562C7070BD0000000C01400000002074
:1008F0003E55000808B5322000F016FA4FF47A731E
:100900000522D0212B4800F08BFC00284BD1802100
:100910006B2000F0ADF8002845D1642000F004FA07
:1009200000216B2000F0A4F8E8BB0A2000F0FCF9DD
:1009300069466B2000F08CF8A8BB9DF8000078B1E8
:1009400000216B2000F094F868BB0A2000F0ECF95D
:1009500069466B2000F07CF828BB9DF8000010BBB6
:1009600000216C2000F084F8E8B90021382000F064
:100970007FF8C0B900211F2000F07AF898B9002153
:10098000202000F075F870B900216A2000F070F89E
:1009900048B900211B2000F06BF820B900211C2071
:1009A00000F066F808B1012008BD322000F0BCF963
:1009B000002008BD4801002070B586B014460D46E1
:1009C00006464FF47A72062103A88DE8070001233A
:1009D0003B22D0210A4800F06FFD10B1012006B083
:1009E00070BDBDF80C0040BA3080BDF80E0040BAB2
:1009F0002880BDF8100040BA20800020EFE70000FA
:100A00004801002070B586B014460D4606464FF4E6
:100A10007A72062103A88DE8070001234322D02122
:100A20000A4800F049FD10B1012006B070BDBDF8C4
:100A30000C0040BA3080BDF80E0040BA2880BDF8E6
:100A4000100040BA20800020EFE70000480100209D
:100A50000EB501234FF47A72CDE9001302920246DB
:100A6000D021024800F028FD0EBD00004801002002
:100A700003B583B04FF47A73012204A98DE80E0008
:100A800013460246D021024800F044FE05B000BDE6
:100A90004801002010B503F0BDF9BDE8104003F097
:100AA00019BB0000F0B593B01C4615460E4607462C
:100AB00003F0B0F93B461AA218216846FFF7D8FBAD
:100AC000334619A2182106A8FFF7D2FB2B4618A21D
:100AD00018210CA8FFF7CCFB0021084603F0C8F949
:100AE0000CB115A000E017A003F0EAFA10210020D5
:100AF00003F0BEF9684603F0E3FA2021002003F07A
:100B0000B7F906A803F0DCFA3021002003F0B0F9B1
:100B10000CA803F0D5FA03F0DDFA13B0F0BD000025
:100B200047583A256400000047593A256400000000
:100B3000475A3A25640000004759524F205B4F4BFB
:100B40005D0000004759524F205B4641494C5D0013
:100B500010B5044603F05EF90021084603F088F959
:100B600014A003F0ADFA1021002003F081F9DCB1EC
:100B700013A000BF03F0A4FA2021002003F078F9AD
:100B8000012C13D010A000BF03F09AFA30210020EE
:100B900003F06EF9022C0BD00EA000BF03F090FA08
:100BA000BDE8104003F096BA0CA0E3E70DA0EBE718
:100BB0000FA0F3E74D41494E204D454E5500000032
:100BC0002020434C4F434B0020204D5055363035AC
:100BD0003000000020205354455000003E20434C7C
:100BE0004F434B003E204D5055363035300000000D
:100BF0003E2053544550000010B586B0044603F023
:100C000009F923460EA218216846FFF731FB00219F
:100C1000084603F02DF90DA003F052FA1821002028
:100C200003F026F9684603F04BFA3021002003F068
:100C30001FF909A003F044FA03F04CFA06B010BD06
:100C400053544550533A256C750000005354455099
:100C500020434F554E5400005052455353204D4FA2
:100C6000444500002DE9F0478AB0064612A899468F
:100C700090E8800515460C4603F0CCF8CDE90078E5
:100C80004B461EA2102106A8FFF7F2FA33461FA218
:100C9000102102A8CDE90045FFF7EAFA0021084635
:100CA00003F0E6F806A803F00BFABAF1000F06D03D
:100CB0000021602003F0DCF818A003F001FA012500
:100CC000042402A8FFF718FC10B1411E890000E0BF
:100CD0000021082200FB021080B2C0F1800000EB6E
:100CE000D070C0F3470118222B4602A8009403F0ED
:100CF00023F903F0EFF90AB0BDE8F0872530347529
:100D00002E253032752E2530327500002530327593
:100D10003A253032753A253032750000534554007B
:100D2000FEE7704772B6FEE770B5044600F094F92E
:100D30000546601C02D004480078044400F08CF999
:100D4000401BA042FAD370BD640000202DE9F0439F
:100D500000233E4F0F2573E001229A400A406DD0D8
:100D600023F00304E619D6F808809C074FEA147CA8
:100D700005FA0CF909EA0804DFF8D480404502D1ED
:100D80004FF0000816E0DFF8CC80404502D14FF06C
:100D900001080FE0DFF8C080404502D14FF00208A3
:100DA00008E0DFF8B880404502D14FF0030801E0C9
:100DB0004FF0040808FA0CF8A04522D1284CD4F8CA
:100DC00000C02CEA020CC4F800C0241DD4F800C0F6
:100DD0002CEA020CC4F800C0214C0C34D4F800C03A
:100DE0002CEA020CC4F800C0241FD4F800C02CEA7E
:100DF000020CC4F800C0D6F808C02CEA090CC6F8EA
:100E000008C0FF2A01D8064601E000F104064FEAB7
:100E1000830401D9A4F12004D6F800C005FA04F82F
:100E20002CEA080C4FF0040808FA04F84CEA080C05
:100E3000C6F800C0C46824EA0204C46003F10103D8
:100E400031FA03F288D1BDE8F083000000000140D0
:100E500000080140000C0140001001400014014056
:100E6000000401402DE9F84FDFF8B8910024A9F102
:100E7000040B23460F2709F1040AABF1040EC9E065
:100E80000125A5402A40AA427DD1674ED1F804C071
:100E9000ACEB0608B44532D014DCBCF1030F3AD0F9
:100EA00009DCBCF1000F2AD0BCF1010F1CD0BCF151
:100EB000020F31D11DE0BCF1110F17D0BCF1120FA0
:100EC0002AD119E0B8F5881F19D006DCB8F5803FA3
:100ED00015D0B8F5801F1FD111E0B8F5001F0ED056
:100EE000B8F5041F18D10AE0CB6815E0CB681B1DCC
:100EF00012E0CB6808330FE0CB680C330CE08B6852
:100F00002BB1012B4FF0080303D0456104E004230B
:100F100002E0056100E00023FF2A01D8064601E057
:100F200000F104064FEA840501D9A5F12005D6F8A1
:100F3000008007FA05FC28EA0C0803FA05F548EAE0
:100F40000508C6F800804D68ED0062D5374DAE69E2
:100F500046F00106AE61AD6924F0030605F0010517
:100F60000095334D06EB050CDCF80850A607360F4C
:100F700007FA06F825EA0805DFF8B880404503D1EE
:100F80004FF0000817E044E0DFF8AC80404502D1A4
:100F90004FF001080FE0DFF8A480404502D14FF088
:100FA000020808E0DFF89880404502D14FF00308BE
:100FB00001E04FF0040808FA06F848EA0508CCF802
:100FC00008804D68D9F80060ED024D4601D5164302
:100FD00000E096432E604D68DAF80060AD02554699
:100FE00001D5164300E096432E604D68DBF80060A3
:100FF000AD035D4601D5164300E096432E604D6873
:10100000DEF80060ED03754601D5164300E0964317
:101010002E60641C0D682A46E5407FF431AFBDE8C0
:10102000F88F000008040140000011100010024079
:101030000000014000080140000C01400010014088
:10104000001401408068084000D0012070470AB1B8
:10105000016170470904FBE70148806870470000A0
:101060006400002010B5040013D0242084F83D0053
:101070002068016821F001010160204600F0E2FBD8
:101080000020206484F83D0044F8300FA0732073E2
:1010900010BD012010BD000070B5040025D094F8EB
:1010A0003D00002520B984F83C50204600F0F6FBB6
:1010B000242084F83D002068016821F001010160CE
:1010C0002068016841F4004101602068016821F452
:1010D0000041016000F0B0FD4D4A6168914201D8C5
:1010E0004C4900E04C49884201D2012070BD4B4977
:1010F0002368B0FBF1F15E6826F03F060E435E60A8
:101100006368934206D94FF4967359434FF47A7348
:10111000B1FBF3F12368491C1E6A26F03F063143F8
:1011200019626168914210D84900401EB0FBF1F28B
:10113000521CC2F30B02042A01D2042022E0B0FBAD
:10114000F1F0401CC0F30B001CE0A268F2B301EB0D
:10115000C10303EB0116431EB3FBF6F35B1C43F420
:1011600080431B0549D092B301EBC10202EB011190
:10117000401EB0FBF1F0401CC0F30B0040F4804077
:1011800040F400402168CA694CF6FF739A4310434B
:10119000C861D4E9071001432068026822F0C00248
:1011A00011430160D4E9030101432068826848F2D9
:1011B000FF339A4311438160D4E905010843216854
:1011C000CA6822F0FF021043C86001E00EE016E09A
:1011D0002068016841F0010101602564202084F845
:1011E0003D00256384F83E50002070BD01EB4106B0
:1011F000431EB3FBF6F35B1CB3E70120C2E701EB30
:101200004101401EB0FBF1F0401CC0F30B00B7E7FA
:10121000A086010080841E0000093D0040420F00AE
:101220002DE9FF4F81B089460446FFF715FF0546BB
:1012300094F83D004FF0000820287DD119230122A9
:1012400050492046009501F047FA002874D194F8DF
:101250003C00012870D0012084F83C00206801681F
:10126000C90703D1016841F00101016020680168EC
:1012700021F400610160242084F83D0000262664EA
:101280004148E0624FF0011B20272068016841F4CB
:10129000807101600095002259462046049B01F0B0
:1012A0001BFA50B120680068C00502D54FF40070E9
:1012B0002064032005B0BDE8F08F216809F0FE002E
:1012C0000861FFF7C9FE2168054648694969C0F30E
:1012D0004000C1F380214FF0A00A0FE0FFF7BCFEF1
:1012E000411B0498814200D808B984F83DA02168C8
:1012F00048694969C0F34000C1F3802194F83D205A
:10130000A02A02D008B90029E8D084F83D702068EE
:101310004169C943890716D4016841F4007101602D
:1013200020684169806919230122164920460095E9
:1013300001F0D2F9B8B900E021E084F83D7084F8FA
:101340003C600020B6E7016841F40071016021684B
:101350006FF480604861192301220A4920460095F4
:1013600001F0BAF908B10120A4E7039808F10108D7
:1013700080458AD384F83D7084F83C60F3E702200E
:1013800098E70000020010000000FFFF2DE9F84F71
:101390001F4690468A460446DDF82890FFF75CFE1B
:1013A000054694F83D0020287FD1192301224049A9
:1013B0002046009501F090F9002876D194F83C0081
:1013C000012872D0012084F83C0020680168C90718
:1013D00003D1016841F0010101602068016821F436
:1013E00000610160212084F83D00102084F83E0057
:1013F00000262664C4F824806785608D20852D48EA
:10140000E0622B464A465146204601F019F890B951
:10141000206841698069009036E02A4649462046A6
:1014200001F038FA50B1206C042804D1206801681A
:1014300041F4007101600120BDE8F88F606A216805
:1014400000780861606A401C6062618D491E618598
:10145000218D491E89B2218522685369DB435B07D0
:101460000BD451B100781061606A401C6062608DDD
:10147000401E6085208D401E20852A464946204614
:1014800001F0FEF80028CED1208D0028C5D154F8F7
:101490003D0B016841F400710160202004F81E0931
:1014A000E67766770020C7E7FFE70220C4E7000081
:1014B000020010000000FFFF2DE9FF4F83B0002560
:1014C000DDE910799A4693460446DDF84880009598
:1014D000FFF7C2FD064694F83D0020287CD1192371
:1014E000012288492046009601F0F6F80028F5D13F
:1014F00094F83C0001286FD0012084F83C0020685B
:101500000168C90703D1016841F001010160206849
:10151000016821F400610160222084F83D00402030
:1015200084F83E0025646762A4F82A90608D2085C7
:101530007548E062CDE9008653465A462046049934
:1015400000F0CCFF00287CD1208DDFF8C09120274F
:1015500068B1012814D00228206801681ED041F427
:10156000806101602068416980690090BCE020686A
:10157000416981690091016841F400710160B3E043
:101580002068016821F48061016072B620684169B9
:1015900081690091016841F400710AE041F4006141
:1015A000016072B62068416981690091016821F487
:1015B0008061016062B697E0032865D801280CD0ED
:1015C000022843464FF000024946204600960BD0C1
:1015D00001F082F8A8BB0CE091E03246414620467B
:1015E00001F020F968BB72E001F076F848BB72B6F2
:1015F00033E02068016821F48061016072B62068E0
:101600000069616A0870606A401C6062208D401E3B
:101610002085608D401E60853D4846F2A811006817
:10162000B0FBF1F0C0EBC00000EB80000090401E6A
:10163000009007D020684069C04340070DD500984E
:10164000F5E727E044F8305F6773A573206940F041
:101650002000206162B625731CE02068016841F417
:101660000071016020680069616A0870606A401C4E
:101670006062218D491E2185618D491E618562B69A
:1016800021680969017026E032464146204601F092
:10169000C9F818B1012007B0BDE8F08F20680069D3
:1016A000616A0870606A401C6062208D401E81B2D1
:1016B0002185608D401E608520684269D2435207B3
:1016C00012D4032903D1016821F4806101602068EC
:1016D0000069616A0870606A401C6062208D401E6B
:1016E0002085608D401E6085208D00287FF464AFCA
:1016F00084F83D7084F83E5084F83C50CBE70220DB
:10170000C9E70000020010000000FFFF0400010014
:10171000700000202DE9FF4F83B09A46DDE9119754
:1017200093460446DDF84080FFF796FC054694F8A2
:101730003D0020287FD119230122404920460095F1
:1017400000F0CAFF002876D194F83C00012872D03E
:10175000012084F83C0020680168C90703D10168B2
:1017600041F0010101602068016821F4006101601D
:10177000212084F83D00402084F83E0000262664A5
:10178000C4F82480A4F82A90608D20852C48E0625B
:10179000CDE9007553465A462046049900F01CFFD7
:1017A00070B930E02A463946204601F073F858B146
:1017B000206C042804D12068016841F400710160A4
:1017C000012007B0BDE8F08F606A216800780861E9
:1017D000606A401C6062218D491E89B22185628D3C
:1017E000521E628522685369DB435B070BD469B1E3
:1017F00000781061606A401C6062208D401E208568
:10180000608D401E6085208D0028CBD12A46394648
:10181000204600F035FF0028CAD154F83D0B01687E
:1018200041F400710160202004F81E09E677667714
:101830000020C6E7FFE70220C3E700000200100017
:101840000000FFFF10B50068104A1149114C90428A
:1018500009D1C86920F40010C86189152046FFF736
:1018600075FA61150CE00C4A90420ED1C86920F45B
:101870008000C86111152046FFF768FA4FF4006137
:101880002046BDE81040FFF761BA10BD005400408B
:1018900000100240000C01400058004030B585B0F7
:1018A00000210091019102910391214D0368214C87
:1018B000122103222048AB421DD1A36943F0080343
:1018C000A361A369039203F0080304931302CDE913
:1018D00000316946FFF7C6FA1848416841F0E061F7
:1018E00041F002014160E06940F40010E061E0690C
:1018F00000F4001019E0124DAB4217D1A36943F078
:101900000803A361A369039203F0080304934FF44F
:101910004063CDE900316946FFF7A4FAE06940F47D
:101920008000E061E06900F48000049005B030BD03
:101930000054004000100240000C01400000014033
:101940000058004002488168027811448160704765
:1019500064000020074810B5016841F010010160E3
:10196000032000F0A1F80F2000F006F800F04AF87C
:10197000002010BD0020024030B505461C4887B04D
:10198000816941F400618161806906A900F4006009
:10199000009001A800F030F900F05EF91549164AF0
:1019A000B0FBF1F11548491E0260416040F2E73298
:1019B0000021C0E903218160816100F015FB040072
:1019C00012D10E4800F03EFB04000DD1192000F0AA
:1019D0003DF8102D07D200222946192000F044F8C6
:1019E0000748056000E0012407B0204630BD000034
:1019F0000010024040420F00002C0140E401002092
:101A0000680000200F4808B5816941F0010181613B
:101A1000816901F001010091C16941F08051C1610A
:101A2000C069002200F0805000900F21901E00F04D
:101A30001BF80548416821F0E06141F00071416008
:101A400008BD00000010024000000140002809DB32
:101A500000F01F02012191404009800000F1E020C8
:101A6000C0F8001170470000F0B40E4B1B680C4624
:101A7000C3F30223C3F10705042D00D90425191D62
:101A8000072901D2002300E0DB1E012606FA05F13A
:101A9000491E214099409E40761E16403143F0BCBD
:101AA00001F0AABC0CED00E0064900F0070208684E
:101AB0004FF6FF03184040EA0220034A1043086033
:101AC000704700000CED00E00000FA052DE9F0473A
:101AD0000F46050061D0434E306800F00700B84261
:101AE00009D2306820F0070038433060306800F0D9
:101AF0000700B84251D128683B4C810712D54007F6
:101B000003D5606840F4E06060602878000703D582
:101B1000606840F4605060606068A96820F0F00080
:101B2000084360602878C00728D06868012810D072
:101B30002168022810D0890700292EDA616821F077
:101B4000030101436160FFF787FA804641F288395B
:101B50000DE021688903EFE78901EDE7FFF77CFAE3
:101B6000A0EB0801494502D90320BDE8F087606871
:101B7000696800F00C00B0EB810FEFD1306800F025
:101B80000700B8420BD9306820F0070038433060B6
:101B9000306800F00700B84201D00120E5E728785E
:101BA000400705D56068E96820F4E060084360609C
:101BB0002878000706D56068296920F4605040EA5B
:101BC000C100606000F058F86168084AC1F3031171
:101BD000515CC8400649086006480068FFF7CCFE23
:101BE0000020C2E700200240001002401658000802
:101BF00070000020680000200F2202600C4A536829
:101C000003F003034360536803F0F00383605368F9
:101C100003F4E063C36052684FF4E06303EAD20266
:101C200002610448006800F0070008607047000087
:101C3000001002400020024004480549006849683D
:101C4000044AC1F30221515CC84070477000002073
:101C500000100240265800080448054900684968F9
:101C6000044AC1F3C221515CC84070477000002093
:101C700000100240265800080E4A51680E4801F034
:101C80000C03042B11D0082B0FD10C48C1F3834354
:101C9000C903C05C0AD55168084AC1F34041921E8D
:101CA000515C054A5043B0FBF1F07047044948438A
:101CB000704700000010024000127A000658000829
:101CC00000093D002DE9F84F040070D02078C04D88
:101CD000C00749D06868C0F38100012807D0686850
:101CE000C0F38100022809D16868C00306D52868BE
:101CF000800339D560680028E7D035E06068B0F52A
:101D0000803F0BD010B1B0F5A02F11D0286820F47F
:101D100080302860286820F4802002E0286840F4A1
:101D200080302860606890B1FFF796F906460AE0B7
:101D3000286840F480202860F0E700BFFFF78CF9A6
:101D4000801B642873D828688003F7D50CE0FFF760
:101D500083F9064605E000BFFFF77EF9801B642883
:101D6000F0D828688003F7D420789A4E80074FF087
:101D700001094FF0000839D5686810F00C0F07D042
:101D80006868C0F38100022809D16868C00306D4DE
:101D90002868800714D52069012808D110E020693F
:101DA000B0B1C6F80090FFF757F9074605E00AE121
:101DB000FFF752F9C01B0228C4D828688007F7D55E
:101DC0002868616920F0F80040EAC10028600DE051
:101DD000C6F80080FFF740F9074604E0FFF73CF93A
:101DE000C01B022823D828688007F7D42078000772
:101DF0002CD57948A169D9B1C0F80090FFF72CF92A
:101E0000074604E0FFF728F9C01B02280FD8686ACC
:101E10008007F7D571484FF4FA510068B0FBF1F034
:101E2000009000BF0098411E0091FAD20EE080E0C1
:101E3000C0F80080FFF710F9074604E0FFF70CF93F
:101E4000C01B022875D8686A8007F7D4207840073D
:101E500060D5E8690027C00008D4E86940F08050E8
:101E6000E861E869012700F0805000905C48016853
:101E7000C90513D40168834641F480710160FFF7FE
:101E8000EBF8824606E000BFFFF7E6F8A0EB0A0099
:101E900064284ED8DBF80000C005F5D5E0680128BD
:101EA0000AD008B1052813D0286A20F00100286262
:101EB000286A20F0040002E0286A40F0010028624D
:101EC000E06841F2883B98B1FFF7C6F882460BE024
:101ED000286A40F004002862EEE700BFFFF7BCF874
:101EE000A0EB0A0159455AD8286A8007F6D50CE0BC
:101EF000FFF7B2F8824605E0FFF7AEF8A0EB0A0163
:101F000059454CD8286A8007F6D41FB1E86920F0FB
:101F10008050E861E06988B36968C1F381010229F2
:101F200044D00228C6F8608004D0FFF795F8044634
:101F300038E034E0FFF790F8074604E0FFF78CF84C
:101F4000C01B02282BD828688001F7D4206AB0F57E
:101F5000803F05D16868A16820F4003008436860BC
:101F6000D4E908010843696821F4741108436860E2
:101F7000C6F86090FFF770F8044606E025E000BF61
:101F8000FFF76AF8001B022809D828688001F7D5F6
:101F90001BE000BFFFF760F8001B022802D90320F6
:101FA000BDE8F88F28688001F4D40EE00128F7D04E
:101FB0006868226A00F48031914204D1616A00F4B9
:101FC0007010884201D00120EAE70020E8E7000015
:101FD0000010024000004242800442427000002093
:101FE000007000407047704710B5040003D094F8AB
:101FF0003D0010B107E0012010BD002084F83C0036
:10200000204600F01EF8022084F83D00211D2068C3
:1020100001F0F8F8012084F8460084F83E0084F8C6
:102020003F0084F8400084F8410084F8420084F8BE
:10203000430084F8440084F8450084F83D00002003
:1020400010BD704790F83D10012901D00120704764
:10205000022180F83D100168CA6842F00102CA609E
:1020600000680B49884208D0B0F1804F05D009497B
:10207000884202D00849884204D1816801F00701F2
:10208000062903D0016841F001010160002070477A
:10209000002C0140000400400008004070472DE97A
:1020A000F04104460068C66805694FF00007A907BB
:1020B00013D5B10711D5F91E0161012020772068E1
:1020C00080698007204602D0FFF7E8FF04E000F0B7
:1020D0007EF8204600F07CF82777680716D5700751
:1020E00014D521686FF00400086102202077206871
:1020F000806910F4407F204602D0FFF7CFFF04E054
:1021000000F065F8204600F063F82777280715D51A
:10211000300713D521686FF008000861042020778C
:102120002068C0698007204602D0FFF7B7FF04E0AF
:1021300000F04DF8204600F04BF82777E80616D55A
:10214000F00614D521686FF0100008610820207790
:102150002068C06910F4407F204602D0FFF79EFF40
:1021600004E000F034F8204600F032F82777E80762
:1021700008D0F00706D021686FF001000861204602
:1021800000F028F8280608D5300606D521686FF03B
:10219000800008612046FFF725FF680608D5700615
:1021A00006D521686FF040000861204600F01CF859
:1021B000A8060AD5B00608D521686FF0200008618E
:1021C0002046BDE8F041FFF70EBFBDE8F081704743
:1021D0007047000000680349884201D1FFF7B2BB95
:1021E00070470000002C0140704770B5040004D017
:1021F00094F84100002510B106E0012070BD84F87C
:102200004050204600F024F8242084F84100206843
:10221000C16821F40051C160204601F057F82068E0
:10222000016921F4904101612068416921F02A018E
:1022300041612068C16841F40051C160656420209B
:1022400084F8410084F842006563002070BD0000FE
:1022500030B585B000240094019402940394006882
:102260001449884224D11448816941F48041816134
:10227000816901F480410491816941F00401816127
:1022800080690E4D00F0040004904FF4007000903F
:10229000022001900320039069462846FEF7E2FDE4
:1022A0002815CDE90004694628460294FEF7DAFDB8
:1022B00005B030BD00380140001002400008014068
:1022C0002DE9F84F044690F842009A4616460D460E
:1022D000202802D00220BDE8F88FB5B1AEB10020B1
:1022E0006064222184F842102063FEF7B5FEA685C3
:1022F0008146E685A0684FF480582027404501D1EB
:10230000206920B12E46002529E00120E3E70026C0
:1023100025E04B46002220212046CDF800A001F008
:1023200031F818B184F842700320D4E726B1A068D0
:1023300040451AD038B108E020684068C0F3080072
:1023400025F8020B08E0206978B12068406800F0A9
:102350007F0000BF06F8010BE08D401EE085E08D98
:102360000028D6D184F84270B5E720684068F1E7CC
:102370002DE9F843044690F84100984616460D466C
:10238000202802D00220BDE8F88385B17EB100206C
:102390006064212084F84100FEF75EFEA684814639
:1023A000E684A0682027B0F5805F02D003E001201A
:1023B000E9E7206910B12E4600250EE000260CE06A
:1023C0008021204600F0DEFFA8B9C6B116F8010B47
:1023D00021684860E08C401EE084E08C4B464FF062
:1023E0000002CDF800800028EAD14FF040012046DD
:1023F00000F0C8FF40B184F841700320C3E735F80E
:10240000020BC0F30800E3E784F841700020BAE74C
:10241000FEE701684A69D24352050FD46FF4806227
:102420004A61002140F8301F202242738173026903
:1024300042F00402026101730120704700207047DE
:10244000F8B50446C06A1E460D461746082807D050
:10245000012805D010F5803F02D0206B122804D14E
:102460002068016841F480710160134600224FF03A
:1024700001112046009600F02FF940B12068006855
:10248000C00502D54FF4007020640320F8BD206918
:10249000B0F5804F0ED00620216800EAD51040F03C
:1024A000F000086133463A460B49204600F05CF9DB
:1024B00078B902E005F0FE0000E0E8B221680861AA
:1024C000054933463A46891F204600F04DF9002859
:1024D000DCD00120F8BD0000080001002DE9F84F14
:1024E0000446006889460B9D01689846174641F4EA
:1024F000806101602068016841F48071016000958D
:102500004FF0011B0022594620460A9B00F0E4F8D8
:102510004FF4007A40B120680068C00501D5C4F8C6
:1025200040A00320BDE8F88F216809F0FE00086193
:102530002B46284920460A9A00F016F9F0BB20687D
:102540004169806900902A4620460A9900F0A2F964
:1025500040B1206C04283AD12068016841F4007130
:10256000016034E0FEB2B8F1010F09D02168380AE9
:1025700008612A4620460A9900F08CF90028E8D123
:10258000206806612A4620460A9900F083F900284F
:10259000DFD12068016841F480710160009500225C
:1025A000594620460A9B00F097F80028B3D12168CD
:1025B00009F0FF0040F00100086100E007E02B4651
:1025C000044920460A9A00F0CFF80028AAD001203A
:1025D000A8E70000020001002DE9F8430446006866
:1025E0000D46DDE9089701689846164641F480716A
:1025F00001604B4600224FF001112046009700F089
:102600006BF848B120680068C00502D54FF400702F
:1026100020640320BDE8F883216805F0FE0008610E
:102620003B464A461549204600F09EF888B9206886
:102630004169806900903A464946204600F02AF9EF
:1026400048B1206C042804D12068016841F400716D
:1026500001600120DEE7F5B2B8F1010F09D0216871
:10266000300A08613A464946204600F013F900282E
:10267000E7D1206805610020CCE7000002000100DE
:1026800070B516460D4604461EE02046FFF7C1FE13
:1026900008B1012070BD681C16D0FEF7DDFC801B60
:1026A000A84200D885B920684069C04340070BD5CF
:1026B000002044F8300F20216173A073216941F09C
:1026C000200121612073E4E720684069C04340078E
:1026D000DBD4002070BD00002DE9F0479846174676
:1026E0000D460446C1F30746DDF820902AE000BFFE
:1026F000B8F1FF3F26D0FEF7AFFCA0EB0901414542
:1027000002D8B8F1000F1DD12068012E16D08069C3
:1027100025EA00000004000C12D00020B84211D1BC
:10272000002044F8300F20216173A073216941F02B
:102730002001216120730120BDE8F0874069E7E7AF
:102740000120EBE72068012E0AD0806925EA00000D
:102750000004000C06D00020B842C9D00020EBE7EE
:102760004069F3E70120F7E72DE9F0479846164660
:102770000D4604464FF000094FF0200AC1F3074709
:1027800023E020684069C043400515D420680168F3
:1027900041F40071016021686FF480604861C4F801
:1027A000309084F83DA084F83E90216C41F0040103
:1027B000216484F83C9021E0701C06D0FEF74CFCAC
:1027C000A0EB0800B04203D816B1012F1FD021E0C2
:1027D0002068012F15D0806925EA00000004000C54
:1027E00018D000BF44F8309F84F80DA084F80E90F4
:1027F000216941F02001216184F80C900120BDE89D
:10280000F087406925EA00000004000CEAD1206846
:10281000406901E02068806925EA00000004000C9E
:10282000AFD1ECE72DE9F041002590460E46044675
:10283000202728E04069C043C0060CD454F8301B60
:102840006FF01000486144F810596777A577206A47
:102850002062257714E0FEF7FFFBA0EB0800B042F2
:1028600000D886B920684069C04340060BD544F8BB
:10287000305F6773A573206940F0200020612573E5
:102880000120BDE8F08120684169C9434906D1D4DF
:102890000020F6E770B516460D4604461EE02046B9
:1028A000FFF7B7FD08B1012070BD681C16D0FEF718
:1028B000D3FB801BA84200D885B920684069C0437B
:1028C00000060BD5002044F8300F20216173A0735F
:1028D000216941F0200121612073E4E7206840690B
:1028E000C0430006DBD4002070BD000010B5044AD0
:1028F0000021044800F0E8FD0349086510BD000010
:1029000050550008892A00080C0000202DE9F041EC
:1029100086B000242A4800940194029403948169AB
:1029200041F020018161816901F0200104918169F8
:1029300041F004018161816901F004010491816920
:1029400041F00801816180691E4F00F00800049089
:10295000002204213846FEF77AFBDFF86C80002263
:1029600001214046FEF773FB2A2001258DE8310046
:1029700069463846FEF776FA04200226CDE90005BE
:10298000CDE9024669463846FEF76CFA80208DE8AC
:10299000310069463846FEF765FA03960095CDE9A1
:1029A000015469464046FEF75DFA47F202008DE8A1
:1029B000310069464046FEF755FA06B0BDE8F081A1
:1029C0000010024000080140000C01400D4810B505
:1029D0000B4901600C49416000214FF48042816045
:1029E000C0E9031241618161C1610162FEF754FBDC
:1029F000002803D0BDE81040FEF794B910BD0000D8
:102A000000540040F4000020A08601000D4810B5DD
:102A10000B4901600C49416000214FF48042816004
:102A2000C0E9031241618161C1610162FEF734FBBB
:102A3000002803D0BDE81040FEF774B910BD0000B7
:102A40000058004048010020A08601000C4810B545
:102A50000A4901604FF416514160002181600C2247
:102A6000C160C0E904128161C161FFF7BEFB0028AB
:102A700003D0BDE81040FEF755B910BD0038014045
:102A80009C010020FEE7FEE78EB0DFF804B40025CD
:102A90008DF82C50002301220BA9FE48FFF710FCF3
:102AA00028B9642301220BA9FA48FFF761FCFA4C0C
:102AB00080212046FDF7D1FE07464FF480415E4657
:102AC0005846FDF7CAFE824602212046FDF7C5FEA4
:102AD000814608212046FDF7C0FE079020212046B0
:102AE000FDF7BBFE089002213046FDF7B6FE80469A
:102AF000EA48FDF7C3FEE94C0646083CA079D0B988
:102B0000CEB1FEF7A9FAA16A401A1E2813D3E079C4
:102B1000002E4FF0030101DD401C00E0801CB0FBE3
:102B2000F1F201FB1200E071E17B09B1FEF710F850
:102B3000FEF792FAA062A07A012849D1BAF1000FFB
:102B400046D1A07920B1012829D0032839D03FE00F
:102B5000E07938B1012813D00320A071E07B78B36D
:102B6000206B33E00120A071E07B48B3E07862790C
:102B700021798DE80700A38AA278617820781DE08A
:102B80000220A071E07BD8B1C548B4F91A20B4F98D
:102B900018100378B4F91600FDF784FF18E02570CB
:102BA0006570A5702846E37B2946024643B1E37869
:102BB00094F805C026798DE84810A38AFEF752F8EC
:102BC00006E025636563E17B284609B1FEF714F84A
:102BD000607A012808D13FB9A07928B1A571E07BBE
:102BE00010B1E079FDF7B4FFA07B012816D1B8F150
:102BF000000F13D1A079012810D1607990B1002085
:102C00006071E17B51B12179E2780092CDE9011048
:102C1000A38AA27861782078FEF724F8E07A012868
:102C200002D035E00120EBE7B9F1000F30D1E07BB5
:102C300058B10020E07350B1A07958B101280DD0EF
:102C4000022817D0032820D0BBE00120F2E7FDF7CF
:102C500021FF1DE0E079FDF77BFF19E0E078627964
:102C600021798DE80700A38AA27861782078FDF7A2
:102C7000F9FF0DE08A48B4F91A20B4F91810037866
:102C8000B4F91600FDF70EFF02E0206BFDF7B4FF6C
:102C9000A079012873D16079217BE8B301292CD177
:102CA000079951BBE178491CC9B2E1700C2901D9DF
:102CB0000121E17023791C2B12D9E2781F21022A0D
:102CC00008D0042A08D0062A06D0092A04D00B2AE4
:102CD00002D002E01C2100E01E218B4200D92171AC
:102CE000E17B51B12179E2780092CDE90110A38A0C
:102CF000A27861782078FDF7B5FF607B012860D16C
:102D00000898E0BBE0781F2102280AD004280AD0E6
:102D1000062808D0092800E01FE004D00B2802D0C4
:102D200002E01C2100E01E2122798A4202D2521CBC
:102D3000227107E00121401CC0B22171E0700C2813
:102D400000D9E170E07BD0B1E078627921798DE83B
:102D50000700A38AA278617830E0012918D1079989
:102D6000B1B921781822491CB1FBF2F302FB13160A
:102D70002670E17B61B12179E278009200E020E0E9
:102D8000CDE90110A38AA27861783046FDF76AFF89
:102D9000607B012815D1089898B960783C21401CC7
:102DA000B0FBF1F201FB12016170E07B48B1E07809
:102DB000637922798DE80D00A38AA2782078FDF747
:102DC00051FF677284F80AA084F80B90079820736B
:102DD0000898607384F80E80FEF73EF90146606A39
:102DE000081AB0F57A7F69D3FEF736F96062A078E9
:102DF000401CC0B2A0703C2803D3A5706078401C72
:102E0000607060783C2803D365702078401C207087
:102E1000207818281ED32570E0781F21022808D0BA
:102E2000042808D0062806D0092804D00B2802D090
:102E300002E01C2100E01E2122798A4202D2521CAB
:102E4000227107E00121401CC0B22171E0700C2802
:102E500000D9E170A07901280CD1E07B50B1E07875
:102E6000627921798DE80700A38AA27861782078B9
:102E7000FDF7F8FED4E90C3083421FD009A22021CF
:102E80006846FDF7F5F9002816DD82B264230FE0ED
:102E9000000C01409C0100200008014014000020AB
:102EA00008000020737465703A256C750D0A0000E7
:102EB0006946A848FFF75CFA206B6063FEF7CCF820
:102EC0000146E06A081AC828FFF4E2ADFEF7C4F82C
:102ED000E0628DF830500CA96B20FDF7B9FD9DF82C
:102EE000300050B100216B20FDF7C2FD0520FDF739
:102EF0001BFF0CA96B20FDF7ABFD0CA96C20FDF7A7
:102F0000A7FD9DF8300018B100216C20FDF7B0FD41
:102F1000914A911E881EFDF775FD70B1E5828F4EB6
:102F20002583658335708E48FEF79CF8FFF76EFDAC
:102F3000FDF7E0FC002878D0EFE08848864A4FF0A3
:102F40000108921D80F80080911E881EFDF734FD57
:102F5000B4F91C0002F03CF86FF00D09494602F08C
:102F6000B0FA0746B4F91E0002F032F8494602F002
:102F7000A8FA0646B4F9200002F02AF8494602F001
:102F8000A0FA014602F070F881463146084602F088
:102F90006BF806463946084602F066F8314601F0FD
:102FA000A3FF494601F0A0FF00F01EFF06466D4F4B
:102FB000607CF0B1A16C3046894602F0DBF93946FD
:102FC00002F052F8494601F08FFFA0643046A16C30
:102FD00002F0D0F90646DFF890914FF4967AFEF7AA
:102FE0003BF80746207C40B101281FD003281BD1A5
:102FF0002EE0A66484F81180E8E716F1FF4F08D3AD
:103000005A48E16B814203D0304601F0F9FF00D20B
:10301000E663B6F5000F77DB3046216C02F0F0F87E
:1030200072D284F81080A6636EE074E03046A16B23
:1030300002F0E6F800D2A6634D49A06B02F09AF9BF
:10304000314602F0DDF85FD203202074E6635BE0D6
:103050003046E16B01F0D4FF00D2E663B6F5000F15
:1030600052DAD4E90E0102F085F9CDE90190A07C95
:1030700058B14FF0FF31E06C02F023FA814601991C
:1030800002F0BEF801D2CDF80490DDE9011002F0A3
:10309000B7F835D2606C381A504531D3236B5B1CBE
:1030A000AFF200226764202103A82363FDF7E0F854
:1030B000002814DD82B2642303A92648FFF758F9DB
:1030C00068B9012211465F465846FDF7C0FF3C2013
:1030D000FDF72AFE002201213846FDF7B8FF206BDC
:1030E0006063A07C90B12349029801F0BDFF0746C0
:1030F0002149E06C01F0B8FF394601F0F5FEE064CB
:103100001A482574C4E90E50266406E00298E0646B
:1031100084F81280F4E701203070A07902280AD0E8
:1031200003287FF4B5ACE07B00283FF4B1AC206B02
:10313000FDF762FDACE4E07B0028FBD00748B4F962
:103140001A20B4F918100378B4F91600FDF7AAFC98
:103150009EE400009C0100202600002008000020C2
:10316000480100200AD7233C8FC2F53D0024744952
:103170000AD7A33CCDCCCC3D6666663F10B54FF078
:10318000E020006901F0FAFC012803D0BDE81040FE
:1031900001F028BA10BD30B58FB028216846FDF780
:1031A00017FA14210AA8FDF713FA01210804CDE942
:1031B00000100024029402250491CDE907504FF439
:1031C000E01009906846FEF77DFD08B172B6FEE793
:1031D0000F20CDE90A054FF48060CDE90C400221B3
:1031E0000AA80E94FEF772FC002801D072B6FEE722
:1031F0000FB030BD704700000148FEF750BF00001F
:10320000E4010020F0B50268194B1A4C1A4D4FF03A
:103210008047984205D0B84203D0A04201D0A842CE
:1032200003D122F070064A683243984205D0B84272
:1032300003D0A04201D0A84203D122F44074CA684E
:1032400022434C6922F08002224302608A68C262F3
:103250000A688262984201D10969016301214161D2
:103260000169C90703D0016921F001010161F0BDC5
:10327000002C0140000400400008004001680C31AF
:1032800051E8002F22F4907241E80023002BF5D181
:103290000168143151E8002F22F0010241E80023B7
:1032A000002BF5D1016B012909D101680C3151E8DE
:1032B000002F22F0100241E80023002BF5D120213D
:1032C00080F84210002101637047000070B5044689
:1032D00000680169E26821F44051114301612169EC
:1032E000A0680843616908432168CA6841F20C6319
:1032F0009A430243CA6020684169A26921F440717F
:10330000114341611E492068884202D1FEF7A4FCA6
:1033100001E0FEF791FC00EBC00101EB00126068D8
:1033200064218000B2FBF0F3B3FBF1F36FF01806F9
:103330007343B2FBF0F5B2FBF0F605EB83053223E5
:1033400003EB0515B5FBF1F5B6FBF1F605F0F0055D
:1033500005EB0615B2FBF0F6B2FBF0F0B0FBF1F0B6
:103360006FF01802504306EB800003EB0010B0FB37
:10337000F1F0216800F00F002844886070BD000063
:10338000003801402DE9F843984617460D4604469B
:10339000089E24E0701C22D0FDF75EFEA0EB080022
:1033A000B0421AD8CEB12068C168490717D5802D20
:1033B00015D0402D13D00168C94309070FD4016807
:1033C0000025406800902046FFF758FF0820606401
:1033D00084F840500120BDE8F8830320FBE7206813
:1033E000006835EA000004D00020B842D2D00020A6
:1033F000F1E70120F9E7FEE70907090E002804DBE1
:1034000000F1E02080F80014704700F00F0000F198
:10341000E02080F8141D704730380A2801D20120BE
:103420007047002070470000FEF794FAFFF7B3FEE4
:10343000FFF76CFAFFF7CAFAFFF7E8FAFFF706FBA7
:1034400000F01CFDFDF756FA60B100200649087037
:103450000020FDF77DFB00F009F8FFF747FA00F0C8
:1034600017F8FEE70120F1E708000020EFF30580E0
:1034700010B16FF0050070470448016811B14FF0BA
:10348000FF3070470121016000207047C400002018
:1034900010B5EFF3058010B16FF0050010BD0848BE
:1034A0000168012902D04FF0FF3010BD054A00210C
:1034B00082F8141D0221016000F0C2FF002010BD3F
:1034C000C40000200BE000E02DE9FF414FEA0103BA
:1034D0004FF00005EFF30581039549BB40B380270A
:1034E000182100244AB3166806B1344696691EB105
:1034F0003146761E382E02D21679F60703D0002008
:1035000004B0BDE8F081566906B1B708D2F808C02A
:10351000BCF1000F0DD0D5685C2D18D312693AB1FB
:1035200036B18DE806103A46214601F0FCFA0390C8
:103530000DE0D6685EB912694AB903AACDE9001256
:10354000BAB2214601F0C2FA012800D003950398CF
:10355000D6E700002DE9F041134C0F460546E6681A
:103560002068001D00F0F6FD681C07D137B1216806
:10357000BDE8F0410D48091D00F03CBE206835440F
:10358000B5424560216805D2A06BBDE8F041091D38
:1035900000F018BE606B091D00F014FEA06A8542A1
:1035A00000D2A562BDE8F081740000201C0B002051
:1035B0002DE9F041054600F029FE2D4CA068401C85
:1035C000A06020682B4F10B1606930B32BE02560FC
:1035D000A068012827D1002606EB860007EB8000B3
:1035E00000F0E2FD761C382EF6D3234800F0DCFD17
:1035F0002148143000F0D8FD1F48283000F0D4FDD9
:103600001D483C3000F0D0FD1B48503000F0CCFD90
:10361000194860631430A06305E02068E96AC06A55
:10362000884200D82560606A401C60626864E86A6D
:103630002169884200D9206100EB800007EB8000FF
:10364000291D00F0D7FD00F001FE606900280CD0B4
:103650002068E96AC06A884207D208494FF0805062
:103660000860BFF34F8FBFF36F8FBDE8F08100009C
:10367000740000206C060020CC0A002004ED00E05D
:1036800038B500F0C3FD104C2068C8B90F4800F0F1
:103690008BFD0E48143000F087FD0C48E0601430BC
:1036A00020610A4B0020F03B009003F150021021F2
:1036B0000A2000F0ADFF206010B105A100F048FE27
:1036C000BDE8384000F0C2BDB0000020200C002052
:1036D000546D72510000000030B4026C0B46002A99
:1036E0000BD0C1681144C1608468A14201D3016854
:1036F000C16030BC1846FCF71EBF30BC70472DE9D6
:10370000F041856B174604460026026C82B1C7B1B2
:10371000E068FCF710FFE168206C091AE16022689C
:10372000914202D2A168081AE060022F16D017E079
:103730002068A8B9A06801F099FA06460020A060A8
:103740000EE06068FCF7F7FE216C6068084460607A
:10375000A168884204D32068606001E005B16D1E55
:103760006D1CA5633046BDE8F08110B5044690F8A5
:10377000590058B101280CD002280FD0502080F3F6
:103780001188BFF34F8FBFF36F8FFEE7206B00F000
:1037900071FD2046BDE8104000F06CBD10BD00007A
:1037A00010484FF44061420706D0C01D0D4920F07B
:1037B0000700411AC1F540610B4A00230144C2E9E8
:1037C00000030839183A21F0070111604B600B60C3
:1037D0000B1AC0E9001393604FF000405360506132
:1037E0007047000000130020E0000020144E154C2C
:1037F000A6F29C474FF08058DFF84C9012E000BFD3
:1038000000F004FDF068C568281D00F0A3FCA06866
:10381000401EA0606068401E606000F017FD2846F2
:10382000FFF7A3FF60680028EAD138680128F9D9BA
:10383000C9F80080BFF34F8FBFF36F8FF2E700002E
:10384000080B00207400002004ED00E070B51D4658
:10385000049C51B1C4F80020C4E90F0101212046A5
:1038600000F00AFF84F84C5070BD2460F4E70000BB
:103870002DE9F05F8846DDE90B94154683469100FB
:103880009A460A9EA522206BFCF79AFE6FF0030170
:10389000206B01EB8501084420F00707780707D06B
:1038A000502080F31188BFF34F8FBFF36F8FFEE777
:1038B0000025B8F1000F0FD05FF00000221818F8B3
:1038C000001082F8341018F8001011B1401C1028B4
:1038D000F4D384F8435001E084F83450382E00D3F8
:1038E0003726E662C4E91365201D00F068FC04F188
:1038F000180000F064FC2461C6F138006462A06125
:10390000656584F8585052465946384600F05AFAD0
:103910002060B9F1000F01D0C9F80040BDE8F09F68
:1039200030B5114900E011460A688242FBD34B686A
:103930005C18844203D140681844486008464368D4
:103940001C18944209D1084C183C2468A24209D0A2
:1039500052681A4442600A6812680260814200D0CC
:10396000086030BD0460F9E7E000002070B5002475
:1039700041600B4D0061914206D8D11A8269914293
:1039800006D2011D286907E09A4203D2994201D369
:10399000012403E0011DE86800F014FC204670BD1E
:1039A000B000002010B5044600F030FCA06B28B138
:1039B0005FF0000400F04AFC204610BD0124F9E746
:1039C00030B589B03C4D6EE00498002806DADDE998
:1039D0000601059A90470498002864DB069C6069FC
:1039E00010B1201D00F0B6FB03A800F0D7F8024686
:1039F00004980A2857D2DFE800F00505052D334A60
:103A000005052D3394F8280040F0010084F82800C3
:103A10000599A069059B01442046FFF7A7FF68B3FD
:103A2000216A2046884794F8280040073BD50020AB
:103A300000900598A169002342181946204601F01C
:103A40001FFAD8B9502080F31188BFF34F8FBFF30E
:103A50006F8FFEE714F8280F20F00100207022E09D
:103A600094F8280040F0010084F828000598A0612F
:103A700028B1811813462046FFF778FF13E0502045
:103A800080F31188BFF34F8FBFF36F8FFEE794F879
:103A90002800810703D4204600F0ECFB03E020F06F
:103AA000010084F82800002204A9286800F038FFEB
:103AB000002889D109B030BDB00000202DE9FC41BB
:103AC0000F46054600F000FD01A800F067F8044627
:103AD000019818B101F042F9BDE8FC81254EAFB163
:103AE00030690068D0B30027291B3A46306800F0DF
:103AF00043FC01F033F90028EED11F494FF080500C
:103B00000860BFF34F8FBFF36F8FE5E7A542EBD897
:103B100001F024F9F0682746C068C468201D00F051
:103B200019FB94F82800410719D5A0692B464119C3
:103B30003A462046FFF71AFFA8B100200346014687
:103B400000902A46204601F09BF960B9502080F38E
:103B50001188BFF34F8FBFF36F8FFEE707E020F0B0
:103B6000010084F82800216A20468847B4E701272D
:103B7000BAE70000B000002004ED00E00648416B09
:103B8000096829B1416BC968C96849688162704791
:103B90004FF0FF31FAE700007400002070B50546D1
:103BA00000F0FAFF064E0446B068844203D200F0EB
:103BB00009F8012000E0002028602046B46070BDB4
:103BC000B0000020F8B5194D20E0C068C468066850
:103BD000201D00F0BFFA216A2046884794F828008B
:103BE000400713D5A0693044B04206D92461606013
:103BF000211DE86800F0E6FA08E0002003460146CF
:103C000000903246204601F03BF938B1E86801687F
:103C10000029DAD12969C5E90310F8BD502080F3E5
:103C20001188BFF34F8FBFF36F8FFEE7B000002006
:103C300008484068401C4FF0500080F3118804D0C1
:103C4000BFF34F8FBFF36F8FFEE7BFF34F8FBFF30D
:103C50006F8FFEE7E8000020074CE068016841B183
:103C6000C0680021D0F80000FFF728FFFFF7A8FE8A
:103C7000F3E701210020F7E7B00000202DE9F04133
:103C8000044600F0C3FA94F9455004F1240609E013
:103C9000606A48B1304601F029F808B100F096FB9F
:103CA0006D1E6DB2002DF3DC4FF0FF3684F84560D9
:103CB00000F0CCFA00F0AAFA94F9445004F110078D
:103CC00009E0206948B1384601F010F808B100F069
:103CD0007DFB6D1E6DB2002DF3DC84F84460BDE801
:103CE000F04100F0B3BA00002DE9F041054600278D
:103CF00000F0EAFB324E306808B9FFF751FD7069F9
:103D000005424ED1C5B3083568070ED005F007004F
:103D1000C0F108000544680707D0502080F31188DF
:103D2000BFF34F8FBFF36F8FFEE72DB370688542EF
:103D300037D82348183001460C6801E020460C466D
:103D40006168A94202D221680029F7D131688C420A
:103D500027D007682168016060680837411B102977
:103D60000FD96019420708D0502080F31188BFF3A3
:103D70004F8FBFF36F8FFEE713E041606560FFF781
:103D8000CFFD61687068401A7060B268904200D2DE
:103D9000B060706901430020C4E90001F068401C74
:103DA000F06000F0DBFF780707D0502080F3118827
:103DB000BFF34F8FBFF36F8FFEE73846BDE8F0814A
:103DC000C800002010B5031F4FF080741C601B1F3B
:103DD00021F001011960191F024B0B6014394038A2
:103DE0000A6010BD313C000870B5054601F03AFA92
:103DF000044620F00040C0F1FF40C00F08D025F07D
:103E00000040C0F1FF40C00F04BF0120FCF70FFCD1
:103E1000204670BD10B5002000F01EF80021BDE85E
:103E20001040084600F024B830B580280ED2402952
:103E30000CD2012401F00705AC40064BC90800EB89
:103E4000C110012A195C02D0A143195430BD21438D
:103E5000FBE700002C02002008B1FF2200E0002256
:103E60004FF480610148FCF7ABBB00002C0200203E
:103E7000014A1070517070476000002010B5642036
:103E8000FCF752FFAE2000F055F9202000F052F967
:103E9000002000F04FF9B02000F04CF9C82000F0ED
:103EA00049F9002000F046F9102000F043F94020C5
:103EB00000F040F9812000F03DF97F2000F03AF950
:103EC000A12000F037F9A62000F034F9A82000F076
:103ED00031F93F2000F02EF9A42000F02BF9D32077
:103EE00000F028F9002000F025F9D52000F022F993
:103EF000F02000F01FF9D92000F01CF9222000F07A
:103F000019F9DA2000F016F9122000F013F9DB207D
:103F100000F010F9202000F00DF98D2000F00AF9D2
:103F2000142000F007F9AF2000F004F9FFF772FF4A
:103F3000BDE8104000F0CEB82DE9FF4F85B01C0061
:103F400000D1012400910598FCF7D6FA04900020D6
:103F500051E0059810F80A10A1F13000092801D8A5
:103F6000C0B202E03A293DD10A202649002601EBE1
:103F70000010039010F806905FF00005C5F10701EE
:103F80000120884010EA090F22D0009805FB0400A8
:103F9000C0B20290079806FB0400C0B20190002056
:103FA00013E00199002701EB080B09E002980BF0E0
:103FB000FF013844C0B20122FFF736FF7F1CFFB279
:103FC000A742F3D308F10100C0B28046A042E8D373
:103FD0006D1CEDB2082DD1D3761CF6B2102E01D295
:103FE0000398C7E7129800EBC40100980844C0B2D8
:103FF00000900AF10100049982468842A9D309B0D1
:10400000BDE8F08F745500082DE9F04FA0F12001B4
:10401000602900D33F2027490A78921D802A04D9BD
:1040200000220A704A7808324A7089464A7899F81C
:104030000050D108203800EB800086B2DFF878A06D
:10404000DFF8788002F0070200204FF0FF0B3418F1
:1040500008291AF804300ED205EBC11427180BFA00
:1040600002FC18F8074024EA0C0403FA02FC44EAB4
:104070000C0408F807409AB14C1C082C10D205EB30
:10408000C114044404EB080EC2F108079EF88040F6
:104090002BFA07FC24EA0C04FB401C438EF88040FA
:1040A000401CC0B20528D2D3AD1D89F80050BDE830
:1040B000F08F000060000020245600082C02002031
:1040C00010B5044602E0641CFFF79EFF207800282C
:1040D000F9D110BD2DE9F041A2B00024134F01AD7C
:1040E00040264FF0640800BF04F1B000C0B200F0F9
:1040F00021F8002000F01EF8102000F01BF88DF8C9
:10410000046007EBC4118022681CFCF714FA8123B9
:1041100001AA78210648CDF80080FDF737F9641C24
:10412000E4B2082CE0D322B0BDE8F0812C020020DC
:10413000F40000201CB5002101918DF805000A2033
:104140000090022301AA78210148FDF71FF91CBD48
:10415000F4000020D0E9013201699A60D0E901231E
:104160005A604A68824201D182684A600022026134
:104170000868401E0860086870470000034B036031
:1041800003F15C000860802010607047480C00203C
:10419000044B036003F15C0008604FF48070106012
:1041A00070470000A40E002000F108014FF0FF321C
:1041B000C0E90112C1600161002101607047002166
:1041C0000161704730B50B685A1C02D000F108023B
:1041D00002E0026904E02246546825689D42FAD94B
:1041E00053684B6099608A60516008610168491C9E
:1041F000016030BD42684A6093688B609368596083
:10420000916008610168491C01607047502080F38B
:104210001188BFF34F8FBFF36F8F0A494868401C66
:10422000486001280CD10848006810F0FF0F07D043
:10423000502080F31188BFF34F8FBFF36F8FFEE7DD
:1042400070470000E800002004ED00E008494868DD
:1042500028B1401E486001D180F31188704750207A
:1042600080F31188BFF34F8FBFF36F8FFEE700001D
:10427000E800002070B500282AD0164DA0F10804EF
:1042800060686969084207D1502080F31188BFF344
:104290004F8FBFF36F8FFEE722683AB1502080F353
:1042A0001188BFF34F8FBFF36F8FFEE788436060C5
:1042B00000F00AF960686968084468602046FFF702
:1042C0002FFB2869401C2861BDE8704000F046BD06
:1042D00070BD0000C80000204FF0E0200021016107
:1042E000816105494FF47A720968B1FBF2F1491E08
:1042F00041610721016170477000002010B5FBF794
:1043000093FF114910280ED300F1E02090F8F0033C
:104310000A78904207D2502080F31188BFF34F8F64
:10432000BFF36F8FFEE709480068896800F4E0601A
:10433000884207D9502080F31188BFF34F8FBFF315
:104340006F8FFEE710BD0000E80000200CED00E0DC
:1043500010B5084B002200BF53F832401CB1521C6C
:10436000082AF9D310BD43F8321003EBC2014860AC
:1043700010BD00002C06002070B515460E46044600
:10438000FFF744FF94F944100020491C01D184F840
:10439000440094F94510491C01D184F84500FFF709
:1043A00055FFA06B28B92A46314604F1240000F0DD
:1043B0002BF82046BDE87040FFF760BC02490A6A4E
:1043C0000260C96841607047740000200149012003
:1043D000C86170477400002010B50C4650B10949FF
:1043E00009681831FFF7EEFE2046BDE810400121B4
:1043F000FFF7B0B8502080F31188BFF34F8FBFF3A1
:104400006F8FFEE77400002070B514460D4668B14A
:104410000A4909681831FFF7EDFE0CB14FF0FF357E
:1044200021462846BDE87040FFF794B8502080F33D
:104430001188BFF34F8FBFF36F8FFEE7740000202A
:1044400030B587B00024039405AA04A903A80494F6
:10445000FFF794FEDDE903010094CDE9011000238C
:1044600015A11748059A00F05EFB164D0028E8627A
:104470001FD000F0D5FC012809D0401C19D15020D4
:1044800080F31188BFF34F8FBFF36F8FFEE750208B
:1044900080F31188BFF34F8FBFF36F8F4FF0FF3062
:1044A000A86201206861EC6007B0BDE8304000F010
:1044B00045B807B030BD000049444C45000000003D
:1044C000ED370008740000200248016B491C0163AD
:1044D0007047000074000020164810B5016B11B140
:1044E0000121C16110BD0021C1610169124A01E0D1
:1044F000B9B1491E01EB810352F82330002BF7D0EC
:1045000001EB810302EB830202F1080453685B684C
:104510005360A34201D15B685360DA6802600161B5
:1045200010BD502080F31188BFF34F8FBFF36F8F02
:10453000FEE70000740000206C0600201CB5264930
:1045400008780190FF20087008788DF800009DF829
:1045500000009DF8002000F0F000904207D05020AD
:1045600080F31188BFF34F8FBFF36F8FFEE79DF885
:1045700000001A4C00F0500020700720A06005E0F9
:104580009DF8002052008DF80020401E9DF800206C
:104590001206F5D4A060032807D0502080F31188BC
:1045A000BFF34F8FBFF36F8FFEE74FF44070A060F3
:1045B000019808700A48016841F4700101600168BF
:1045C00041F070410160FFF787FE00206060FBF75B
:1045D000F5FD00201CBD000000E400E0E800002024
:1045E00020ED00E010B5502080F31188BFF34F8F0D
:1045F000BFF36F8F00F0D6FA18B104494FF0805026
:104600000860002080F3118810BD000004ED00E078
:1046100038B5049D18B153B1CAB181B120E0502022
:1046200080F31188BFF34F8FBFF36F8FFEE75020E9
:1046300080F31188BFF34F8FBFF36F8FFEE75020D9
:1046400080F31188BFF34F8FBFF36F8FFEE739B14F
:10465000502080F31188BFF34F8FBFF36F8FFEE7B9
:1046600050241C46012384F846302B460094FFF763
:10467000EDF8204638BD000070B50D46040025D089
:10468000FFF7C4FDD4E90F20216802FB0011A160EF
:104690000021A163216861600A46D4E90F01401E30
:1046A00000FB0121E16021464FF0FF3001F8440F8B
:1046B000487004F110008DB1FFF776FD04F124007D
:1046C000FFF772FDFFF7C2FD012070BD502080F39F
:1046D0001188BFF34F8FBFF36F8FFEE72169002969
:1046E000F0D000F003FB0028ECD004494FF08050DC
:1046F0000860BFF34F8FBFF36F8FE3E704ED00E077
:104700002DE9FF4782B01D468A464FF0000804009D
:1047100003D0BAF1000F08D011E0502080F31188C7
:10472000BFF34F8FBFF36F8FFEE7206C38B150207F
:1047300080F31188BFF34F8FBFF36F8FFEE7022D19
:104740000AD1E06B012807D0502080F31188BFF315
:104750004F8FBFF36F8FFEE700F010FA3F4F4FF01F
:1047600000094FF0805648B9049838B1502080F3C2
:104770001188BFF34F8FBFF36F8FFEE7FFF746FD42
:10478000A06BE16B884207D3022D05D00498D0B10D
:10479000B8F1000F1AD01EE02A4651462046FEF717
:1047A000AEFF616A19B104F1240000F09FFA20B154
:1047B0003E60BFF34F8FBFF36F8FFFF747FD0120C0
:1047C00006B0BDE8F087FFF741FD22E06846FFF73D
:1047D000F5FD4FF00108FFF739FDFFF775FEFFF714
:1047E00015FD94F94400401C01D184F8449094F9DB
:1047F0004500401C01D184F84590FFF727FD04A92E
:10480000684600F029F930B12046FFF737FA00F08A
:10481000A5FA0020D4E7FFF7F9FCA06BE16B884212
:1048200013D1FFF713FD04F110000499FFF7D4FD35
:104830002046FFF723FA00F091FA00289ED13E604F
:10484000BFF34F8FBFF36F8F98E7FFF7FFFC204652
:10485000FFF714FA00F082FA90E7000004ED00E0A0
:104860002DE9F0471F4690468946040003D0B9F170
:10487000000F08D011E0502080F31188BFF34F8F54
:10488000BFF36F8FFEE7206C38B1502080F31188A2
:10489000BFF34F8FBFF36F8FFEE7022F0AD1E06B9C
:1048A000012807D0502080F31188BFF34F8FBFF34A
:1048B0006F8FFEE7FFF722FD5020EFF3118680F3A4
:1048C0001188BFF34F8FBFF36F8FA06BE16B8842EE
:1048D00006D3022F04D0002086F31188BDE8F087AC
:1048E00094F94550A06B3A4649462046FEF707FF2B
:1048F000681C04D06D1C84F845500120ECE7606A08
:104900000028FAD004F1240000F0F0F90028F4D0D7
:10491000B8F1000FF1D00121C8F80010EDE7000058
:104920002DE9F747002683B08A46040003D0BAF188
:10493000000F08D011E0502080F31188BFF34F8F93
:10494000BFF36F8FFEE7206C38B1502080F31188E1
:10495000BFF34F8FBFF36F8FFEE700F00FF9DFF863
:10496000F4804FF000094FF0805748B9059838B1EE
:10497000502080F31188BFF34F8FBFF36F8FFEE796
:10498000FFF744FCA56BC5B151462046FEF7A4FED7
:104990006D1EA563206950B104F1100000F0A6F966
:1049A00028B1C8F80070BFF34F8FBFF36F8FFFF7C8
:1049B0004DFC012006B0BDE8F087059808B11EB196
:1049C00006E0FFF743FC27E06846FFF7F7FC012607
:1049D000FFF73CFCFFF778FDFFF718FC94F9440063
:1049E000401C01D184F8449094F94500401C01D149
:1049F00084F84590FFF72AFC05A9684600F02CF8DA
:104A0000002820460AD0FFF739F900F0A7F9204620
:104A1000FEF7C8FF0028B3D00020CBE7FEF7C2FFA7
:104A200090B104F124000599FFF7D6FC2046FFF76A
:104A300025F900F093F90028A2D1C8F80070BFF35F
:104A40004F8FBFF36F8F9BE72046FFF717F900F0FA
:104A500085F995E704ED00E02DE9F0410C460500ED
:104A600011D0C4B1FFF7D2FB174BDA686E6820682B
:104A7000911B471C17D02F681B6A9F4219D0964282
:104A800017D8012410E0502080F31188BFF34F8F16
:104A9000BFF36F8FFEE7502080F31188BFF34F8F75
:104AA000BFF36F8FFEE70024FFF7D0FB2046BDE881
:104AB000F081884205D9401A20602846FFF77EFC25
:104AC000F1E700202060DCE7740000202DE9FF5FA3
:104AD0008346DDE90E87994616468A469000FFF721
:104AE00003F905001CD05C20FFF7FEF8040014D089
:104AF0000020256384F85900CDE90240CDE9008704
:104B00004B46324651465846FEF7B2FE2046FEF767
:104B10004FFD012004B0BDE8F09F2846FFF7AAFB37
:104B20004FF0FF30F6E7F0B585B0DDE90B640A9D84
:104B3000A6B1DCB15C2700972663022684F8596091
:104B4000002604AFCDE90246CDE90057FEF790FEFE
:104B50002046FEF72DFD049805B0F0BD502080F3EF
:104B60001188BFF34F8FBFF36F8FFEE7502080F3A4
:104B70001188BFF34F8FBFF36F8FFEE70548416980
:104B800019B1006B18B10020704701207047022056
:104B900070470000740000200148C06870470000A2
:104BA000740000202DE9F0412E4C0027206B28B125
:104BB000A069401CA0613846BDE8F081E668761C1B
:104BC000E66013D1606B006838B1502080F3118823
:104BD000BFF34F8FBFF36F8FFEE7606BA16B616315
:104BE000A063206A401C2062FEF7C8FFA06ADFF8BD
:104BF0007880864209D3606B0068A0B1606BC068A2
:104C0000C5686868864211D2A0622068C06A00EB5D
:104C1000800158F82100012800D90127E069002807
:104C2000C9D00127C7E74FF0FF30EDE7281DFFF798
:104C300091FAA86A18B105F11800FFF78BFAE86A33
:104C40002169884200D9206100EB800108EB8100D6
:104C5000291DFFF7CFFAE86A2168C96A8842CAD3DA
:104C60000127C8E7740000206C06002070B504001E
:104C70004FF0000133D01B4D2868844207D05020EC
:104C800080F31188BFF34F8FBFF36F8FFEE7206D66
:104C900038B1401E2065E36CE26A9A421FD040B1F1
:104CA0001DE0502080F31188BFF34F8FBFF36F8F4B
:104CB000FEE7201DFFF74EFAE06CE062C0F138001D
:104CC000A061E06A2969884200D92861064900EBA1
:104CD000800001EB8000211DFFF78CFA01210846BE
:104CE00070BD0000740000206C06002070B5C06824
:104CF000C46854B104F118000646FFF72BFA144DAE
:104D0000286B50B13146134815E0502080F31188CC
:104D1000BFF34F8FBFF36F8FFEE7201DFFF71AFA27
:104D2000E06A2969884200D928610B4900EB8000BC
:104D300001EB8000211DFFF75DFAE06A2968C96A6E
:104D4000884202D90120E86170BD002070BD0000DA
:104D500074000020F40A00206C0600202DE9F047C2
:104D60002C4D00242746286B38B1FFF74FFA286BEB
:104D7000401E2863286B40B146E0502080F3118824
:104D8000BFF34F8FBFF36F8FFEE7A968224E01205C
:104D9000D1B3A6F5916980463068E0B1F068C46887
:104DA00004F11800FFF7D6F9201DFFF7D3F9E06AE8
:104DB0002969884200D9286100EB800109EB810054
:104DC000211DFFF717FAE06A2968C96A8842E3D310
:104DD000C5F81C80E0E70CB1FEF7D0FEAC694CB121
:104DE0004FEA0806FFF7DEFE00B1EE61641EF9D15E
:104DF0000020A861E86938B1084901273807086030
:104E0000BFF34F8FBFF36F8FFFF720FA3846BDE82F
:104E1000F087000074000020F40A002004ED00E098
:104E200010B586B0FEF72CFC114C2068B8B10020FC
:104E30000390049005AA04A903A8FFF7A9F9DDE9E6
:104E4000032102208DE8070000230AA10B48059AE0
:104E5000FFF769FE606010B106B0012010BD502060
:104E600080F31188BFF34F8FBFF36F8FFEE7000011
:104E7000B0000020546D722053766300593C000846
:104E80002DE9FF411E46134602000A9D4FF0000027
:104E900016D0144C2768002F0FD0CDE900130292D2
:104EA000062917DAFFF76AFE02284FF000030FD039
:104EB000002269462068FFF723FC04B0BDE8F081BA
:104EC000502080F31188BFF34F8FBFF36F8FFEE741
:104ED0002A46EEE70023324669463846FFF7C0FC13
:104EE000EBE70000B000002090EA010F48BF81F01E
:104EF000004100F14682421A3CBF801A89184FEAED
:104F0000D0524FF07F4C1CEA410FA2EBD15318BF97
:104F10009CEA026F00F03B804FF0004C4CEA00200E
:104F20004CEA012121FA03FC10EB0C0C1ED202F119
:104F3000FF325FEA1C2040EBC25038BF70471CF0C4
:104F40007F0F4FEA400C18BFBCF17F4F38BF70474E
:104F5000C3F12003994008BF20F00100BCF17F4F4E
:104F600038BF7047A0F1C04000F045B94FEA3C009F
:104F7000000A40EBC25028BF1CF0FF0F4FEA400C64
:104F8000E6D018BFBCF17F4F38BF7047EAE79CEA14
:104F9000026F05D010EA5C0F08BF00F000407047B8
:104FA00010B500F0E2F800BF64FBBE3E014800F01F
:104FB00056BA00BF0000C07F401058BFC0F140404B
:104FC000491058BFC1F140418142EFF30080704762
:104FD00010F0004148BF4042B0FA80F310FA03F2EB
:104FE000C3F19D030BD051EAC35101EB12205306CC
:104FF00038BF704700F1010008BF20F00100704782
:1050000050EA010C00F113801CF5000F58BFBCF5ED
:10501000000F01D48842704707D710F5000F58BF22
:1050200011F5000F15D488427047894270471CF56E
:10503000000F04D5BCF5000FF7D5814270474FF043
:10504000807C1CEB400F38BF1CEB410F01D281422A
:10505000704710B500F089F8922449004FF00050D5
:105060004FF08051FFF7A8BF4FF47F0C1CEAD0121D
:105070001EBF1CEAD11392EA0C0F93EA0C0F00F04A
:10508000478090EA010F48BF42F480724FF0004C15
:105090004CEA00204CEA012102EB0302A0FB0113C1
:1050A000A2F50002002918BF43F001035B0028BFEE
:1050B0004FEA330342EB22425FEA132C4CEBC2501F
:1050C0002EBFBCEB436FB2F57C0F70474FEA036C09
:1050D000BCF1004F08BF20F00100B2F57C0F38BFD3
:1050E00070470BD582F0FF0212F5803FC8BF7047B2
:1050F00000F1C040D8BF00F00040704700F5000C40
:105100005FEA4C0C48BF7047B0F1C04000F073B884
:1051100090EA010F0CEAD11348BF42F48072624555
:1051200038BF634504D280EA010000F000407047B8
:1051300010B500F01AF800BF8900013E00F007B872
:1051400000F009B85FEA410C5FEA1C6C08D080EA05
:10515000010000F050B85FEA400C5FEA1C6CF6D129
:105160004FF00040A0F5800070470EF1020E2EF0C7
:10517000030E5EF8044B244204D44FEA4102B2F11C
:105180007F4F11D84FEA4003B3F17F4F0CD80ED1B7
:105190004FEAD07CB2F17F4F0CEB4C0C0CF1020CBF
:1051A00008BF4CEBD17C04E04FF0080C01E04FEA63
:1051B000D17C0CEB4C0324FA03F404F00704B4F1A3
:1051C000040C06D20EEB840CBDE810404CF0010C30
:1051D0006047DFE80CF0070802024FF00040A0F53E
:1051E000800010BD0846420018BFD2F1807288BF0F
:1051F00000F0004010BDFF2141EAD050C0057047CB
:1052000051EA000C00F113801CF5000F58BFBCF5EB
:10521000000F01D48142704707D711F5000F58BF26
:1052200010F5000F15D481427047894270471CF574
:10523000000F04D5BCF5000FF7D5884270474FF03A
:10524000807C1CEB410F38BF1CEB400F01D2884221
:10525000704780EA010081EA000180EA0100FFF75F
:10526000F8BE00004FEAD051002988BFD1F1FF02FB
:1052700040F2758001F17D014FEA002070B54908C8
:1052800040F0004038BF40080EA2430E040CD25C30
:1052900002FB02F304FB03F3C3F14043A3FB0254FC
:1052A000ED0D45EA442202FB02F3A0FB03546D42DC
:1052B000C4F1404438BF641EA2FB05350023E2FB65
:1052C0000453EA0B42EA4342A0FB023212F14004CB
:1052D000A2F12103E40903F07F031F2B32D904EB71
:1052E000C15070BDFEFAF7F3F0ECE9E6E4E1DEDC74
:1052F000D9D7D4D2D0CECCCAC8C6C4C2C1BFBDBC17
:10530000BAB9B7B6B4B3B2B0AFAEACABAAA9A8A79E
:10531000A6A4A3A2A1A09F9E9E9D9C9B9A999897AC
:10532000979695949393929190908F8E8E8D8C8C6E
:105330008B8A8A8989888787868685848483838205
:105340008281818004FB04F6B6EB004603D5E64279
:1053500048BF641CC3E7A64258BF641CBFE711F0F6
:10536000FF0F02D100F00040704710B5FFF7FDFEBF
:105370007FDBFFBE90EA010F48BF81F000413FF59F
:10538000BAAD421A04D882F00042A0EB02001144E8
:105390004FEAD0524FF07F4C1CEA410FA2EBD153A1
:1053A00018BF9CEA026F4AD04FF0004C4CEA002034
:1053B0004CEA012121FA03FCB0EB0C0C0FD412F0E3
:1053C000FE0F36D05FEA4C001DD5001240EBC250F4
:1053D00038BF70471CF03F0F18BF70470BE0A2F1B9
:1053E00001025FEA1C2040EBC25038BF70471CF03E
:1053F0007F0F18BF7047C3F12003994014BF401EB0
:1054000020F00100704780084FEA122308BF704760
:10541000B0FA80FCA2EB0C02CCF1280C60FA0CF084
:1054200093EA122F04BF00EBC25070474FEAC370DB
:105430007047130A5FEADC1008BF7047F6E79CEA82
:10544000026F04D010EA5C0F08BF0020704710B54F
:10545000FFF78BFE40DFF63E81F0004070470CF016
:105460000F03092B08BF082000F051800A2B0BD036
:10547000082B18BF704708BF1CF0400F0AD04FF030
:1054800000004FF0000170471CF0400F18BF4FF0B4
:10549000004070471CF0100F08D020F0704300F05F
:1054A0007F4242EAD3014FEA4370704700F0604008
:1054B00021F07F4242EA000201F07F4040EA727030
:1054C00070474FF0FF0212EAD0521CBF92F0FF0368
:1054D0008B42C2BFD14200EBC1507047002A0AD0B4
:1054E000002B0BD0002900F00040A4BF40F0FE408C
:1054F00040F40000704700F00040704743024FF056
:105500000B0C18BF4CF0806C7FF450AD70471CF44E
:10551000801F11D01CF4E02F03D06FEACC3149007A
:1055200070474FF04050EFF3008222F0704242EAA1
:10553000000282F3008870474FF0000070470001BE
:10554000FF00FF000001010000FF00FF010000005C
:1055500040580008000000000000000000000000AB
:105560000000000000020000180000000000000021
:10557000000000003C7EC3C3C3C3C3C3C3C3C3C3D3
:105580007E3C0000183878D8181818181818181801
:105590007E7E00003C7EC30303060C183060C0FF13
:1055A000FF0000003C7EC303031E1E0303C37E3CBA
:1055B00000000000060E1E3666C686FFFF060606C1
:1055C00000000000FFFFC0C0C0FCFE0303C37E3C20
:1055D000000000003C7EC3C0C0FCFEC3C3C37E3CD1
:1055E00000000000FFFF03060C18303060606060B0
:1055F000000000003C7EC3C3C37E7EC3C3C37E3CA9
:10560000000000003C7EC3C3C33F1F0303C37E3CB6
:105610000000000000183C3C180000183C3C18003A
:1056200000000000000000000000005F0000000714
:10563000000700147F147F14242A7F2A12231308E2
:10564000646236495522500005030000001C2241C7
:10565000000041221C0014083E081408083E0808F7
:1056600000503000000808080808006060000020B2
:10567000100804023E5149453E00427F400042610D
:105680005149462141454B311814127F1027454599
:1056900045393C4A494930017109050336494949B0
:1056A00036064949291E00363600000056360000ED
:1056B0000814224100141414141400412214080286
:1056C00001510906324979413E7E1111117E7F490F
:1056D0004949363E414141227F4141221C7F49498F
:1056E00049417F090909013E4149497A7F08080873
:1056F0007F00417F41002040413F017F081422414B
:105700007F404040407F020C027F7F0408107F3EB4
:105710004141413E7F090909063E4151215E7F0911
:10572000192946464949493101017F01013F40405D
:10573000403F1F2040201F7F2018207F6314081443
:105740006303047804036151494543007F414100EC
:1057500002040810200041417F00040201020440BD
:1057600040404040000102040020545454787F48D7
:105770004444383844444420384444487F385454DE
:105780005418087E090102081454543C7F0804048C
:105790007800447D40002040443D007F10284400B4
:1057A00000417F40007C041804787C0804047838A9
:1057B000444444387C14141408081414187C7C08DD
:1057C0000404084854545420043F4440203C4040C2
:1057D000207C1C2040201C3C4030403C44281028A9
:1057E000440C5050503C4464544C44000836410032
:1057F00000007F0000004136080008082A1C080845
:105800001C2A0808010202030405060708090A0BFE
:105810000C0D0E0F1010000000000000000001022F
:105820000304060708090000000001020304040045
:10583000000800000000000000020001000010004D
:1058400064656661756C745461736B006C58000814
:1058500000000020F4000000280100086059000842
:10586000F40000206C24000044010008FF00000048
:105870000000000000000000000000070900000018
:10588000FF0101010101010100000000EA07000021
:105890000000000000000000000000000000000008
:1058A00000000000000000000000000000000000F8
:1058B0000000000000247449000000000000000007
:1058C00000000000000000000000000000000000D8
:1058D00001000000100000000000000000127A002B
:1058E00000000000000000000000000000000000B8
:1058F00000000000000000000000000000000000A8
:105900000000000000000000000000000000000097
:105910000000000000000000000000000000000087
:105920000000000000000000000000000000000077
:105930000000000000000000000000000000000067
:105940000000000000000000000000000000000057
:105950000000000000000000AAAAAAAA000000009F
:04000005080000ED02
:00000001FF
